{
  "_format": "hh-sol-artifact-1",
  "contractName": "Handcuffs",
  "sourceName": "contracts/Handcuffs.sol",
  "abi": [
    {
      "inputs": [
        {
          "internalType": "uint256",
          "name": "lockSeconds",
          "type": "uint256"
        },
        {
          "internalType": "uint256",
          "name": "numConfirmations",
          "type": "uint256"
        },
        {
          "internalType": "address",
          "name": "guardianOne",
          "type": "address"
        },
        {
          "internalType": "address",
          "name": "guardianTwo",
          "type": "address"
        },
        {
          "internalType": "address",
          "name": "guardianThree",
          "type": "address"
        },
        {
          "internalType": "address",
          "name": "beneficiary",
          "type": "address"
        }
      ],
      "name": "createVaultOtherBeneficiary",
      "outputs": [],
      "stateMutability": "payable",
      "type": "function"
    },
    {
      "inputs": [
        {
          "internalType": "uint256",
          "name": "lockSeconds",
          "type": "uint256"
        },
        {
          "internalType": "uint256",
          "name": "numConfirmations",
          "type": "uint256"
        },
        {
          "internalType": "address",
          "name": "guardianOne",
          "type": "address"
        },
        {
          "internalType": "address",
          "name": "guardianTwo",
          "type": "address"
        },
        {
          "internalType": "address",
          "name": "guardianThree",
          "type": "address"
        }
      ],
      "name": "createVaultSelfBeneficiary",
      "outputs": [],
      "stateMutability": "payable",
      "type": "function"
    },
    {
      "inputs": [
        {
          "internalType": "address",
          "name": "creator",
          "type": "address"
        },
        {
          "internalType": "uint256",
          "name": "vaultIndex",
          "type": "uint256"
        }
      ],
      "name": "depositIntoExistingVault",
      "outputs": [],
      "stateMutability": "payable",
      "type": "function"
    },
    {
      "inputs": [
        {
          "internalType": "address",
          "name": "creator",
          "type": "address"
        }
      ],
      "name": "getVaultCount",
      "outputs": [
        {
          "internalType": "uint256",
          "name": "",
          "type": "uint256"
        }
      ],
      "stateMutability": "view",
      "type": "function"
    },
    {
      "inputs": [
        {
          "internalType": "address",
          "name": "creator",
          "type": "address"
        },
        {
          "internalType": "uint256",
          "name": "vaultIndex",
          "type": "uint256"
        }
      ],
      "name": "getVaultInfo",
      "outputs": [
        {
          "internalType": "uint256",
          "name": "",
          "type": "uint256"
        },
        {
          "internalType": "uint256",
          "name": "",
          "type": "uint256"
        },
        {
          "internalType": "uint256",
          "name": "",
          "type": "uint256"
        },
        {
          "internalType": "address",
          "name": "",
          "type": "address"
        },
        {
          "internalType": "bool",
          "name": "",
          "type": "bool"
        },
        {
          "internalType": "address",
          "name": "",
          "type": "address"
        },
        {
          "internalType": "bool",
          "name": "",
          "type": "bool"
        },
        {
          "internalType": "address",
          "name": "",
          "type": "address"
        },
        {
          "internalType": "bool",
          "name": "",
          "type": "bool"
        }
      ],
      "stateMutability": "view",
      "type": "function"
    },
    {
      "inputs": [
        {
          "internalType": "address",
          "name": "creator",
          "type": "address"
        },
        {
          "internalType": "uint256",
          "name": "vaultIndex",
          "type": "uint256"
        }
      ],
      "name": "signWithdraw",
      "outputs": [],
      "stateMutability": "nonpayable",
      "type": "function"
    },
    {
      "inputs": [
        {
          "internalType": "address payable",
          "name": "withdrawTo",
          "type": "address"
        },
        {
          "internalType": "address",
          "name": "creator",
          "type": "address"
        },
        {
          "internalType": "uint256",
          "name": "vaultIndex",
          "type": "uint256"
        }
      ],
      "name": "withdraw",
      "outputs": [],
      "stateMutability": "nonpayable",
      "type": "function"
    }
  ],
  "bytecode": "0x608060405234801561001057600080fd5b50611079806100206000396000f3fe6080604052600436106100705760003560e01c8063b4534c5d1161004e578063b4534c5d14610121578063c8d4bb1a1461016b578063d9caed12146101af578063df7b40c2146101f257610070565b8063252f2cac14610075578063361a61f1146100a357806377e1296e146100dc575b600080fd5b6100a16004803603604081101561008b57600080fd5b506001600160a01b038135169060200135610282565b005b3480156100af57600080fd5b506100a1600480360360408110156100c657600080fd5b506001600160a01b03813516906020013561032b565b3480156100e857600080fd5b5061010f600480360360208110156100ff57600080fd5b50356001600160a01b0316610694565b60408051918252519081900360200190f35b6100a1600480360360c081101561013757600080fd5b508035906020810135906001600160a01b0360408201358116916060810135821691608082013581169160a00135166106af565b6100a1600480360360a081101561018157600080fd5b508035906020810135906001600160a01b03604082013581169160608101358216916080909101351661095c565b3480156101bb57600080fd5b506100a1600480360360608110156101d257600080fd5b506001600160a01b03813581169160208101359091169060400135610971565b3480156101fe57600080fd5b5061022b6004803603604081101561021557600080fd5b506001600160a01b038135169060200135610d30565b60408051998a5260208a0198909852888801969096526001600160a01b039485166060890152921515608088015290831660a0870152151560c08601521660e0840152151561010083015251908190036101200190f35b6001600160a01b0382166000908152602081905260409020548290829081106102e7576040805162461bcd60e51b81526020600482015260126024820152711d985d5b1d08191bd95cdb9d08195e1a5cdd60721b604482015290519081900360640190fd5b6001600160a01b038416600090815260208190526040902080543491908590811061030e57fe5b600091825260209091206007909102018054909101905550505050565b6001600160a01b038216600090815260208190526040902054829082908110610390576040805162461bcd60e51b81526020600482015260126024820152711d985d5b1d08191bd95cdb9d08195e1a5cdd60721b604482015290519081900360640190fd5b6001600160a01b038416600090815260208190526040902080543391869186918491839081106103bc57fe5b60009182526020909120600360079092020101546001600160a01b0316148061042857506001600160a01b0382811660009081526020819052604090208054918516918390811061040957fe5b60009182526020909120600460079092020101546001600160a01b0316145b8061047657506001600160a01b0382811660009081526020819052604090208054918516918390811061045757fe5b60009182526020909120600560079092020101546001600160a01b0316145b6104b8576040805162461bcd60e51b815260206004820152600e60248201526d34b73b30b634b21039b4b3b732b960911b604482015290519081900360640190fd5b6001600160a01b03871660009081526020819052604090208054879081106104dc57fe5b60009182526020909120600790910201600301546001600160a01b0316331415610555576001600160a01b03871660009081526020819052604090208054600191908890811061052857fe5b906000526020600020906007020160030160146101000a81548160ff02191690831515021790555061068b565b6001600160a01b038716600090815260208190526040902080548790811061057957fe5b60009182526020909120600790910201600401546001600160a01b03163314156105f2576001600160a01b0387166000908152602081905260409020805460019190889081106105c557fe5b906000526020600020906007020160040160146101000a81548160ff02191690831515021790555061068b565b6001600160a01b038716600090815260208190526040902080548790811061061657fe5b60009182526020909120600790910201600501546001600160a01b031633141561068b576001600160a01b03871660009081526020819052604090208054600191908890811061066257fe5b906000526020600020906007020160050160146101000a81548160ff0219169083151502179055505b50505050505050565b6001600160a01b031660009081526020819052604090205490565b836001600160a01b0316816001600160a01b0316141580156106e35750826001600160a01b0316816001600160a01b031614155b80156107015750816001600160a01b0316816001600160a01b031614155b610752576040805162461bcd60e51b815260206004820152601e60248201527f62656e65666963696172792063616e6e6f7420626520677561726469616e0000604482015290519081900360640190fd5b826001600160a01b0316846001600160a01b0316141580156107865750816001600160a01b0316836001600160a01b031614155b80156107a45750816001600160a01b0316846001600160a01b031614155b6107f5576040805162461bcd60e51b815260206004820152601860248201527f477561726469616e73206d75737420626520756e697175650000000000000000604482015290519081900360640190fd5b60038511156108355760405162461bcd60e51b8152600401808060200182810382526029815260200180610fc86029913960400191505060405180910390fd5b3360009081526020818152604080832081516101408101835234815242909a018a8401908152918a019889526001600160a01b0397881660608b0190815260808b0185815297891660a08c0190815260c08c01868152978a1660e08d019081526101008d01878152978b166101208e01908152845460018181018755958952969097209c516007909602909c0194855592519184019190915597516002830155965160038201805496511515600160a01b90810260ff60a01b19938a166001600160a01b0319998a16178416179091559751600483018054965115158a029189169688169690961782161790945596516005880180549351151590970290861692851692909217909216179093559151600690930180549390911692909116919091179055565b61096a8585858585336106af565b5050505050565b6001600160a01b0382166000908152602081905260409020548290829081106109d6576040805162461bcd60e51b81526020600482015260126024820152711d985d5b1d08191bd95cdb9d08195e1a5cdd60721b604482015290519081900360640190fd5b838333600080846001600160a01b03166001600160a01b031681526020019081526020016000208281548110610a0857fe5b90600052602060002090600702016001015442101580610b5f57506001600160a01b0383166000908152602081905260409020805483908110610a4757fe5b906000526020600020906007020160020154600080856001600160a01b03166001600160a01b031681526020019081526020016000208381548110610a8857fe5b906000526020600020906007020160050160149054906101000a900460ff16610ab2576000610ab5565b60015b6001600160a01b0385166000908152602081905260409020805485908110610ad957fe5b906000526020600020906007020160040160149054906101000a900460ff16610b03576000610b06565b60015b6001600160a01b0386166000908152602081905260409020805486908110610b2a57fe5b906000526020600020906007020160030160149054906101000a900460ff16610b54576000610b57565b60015b010160ff1610155b610b9a5760405162461bcd60e51b81526004018080602001828103825260238152602001806110216023913960400191505060405180910390fd5b6001600160a01b03838116600090815260208190526040902080549183169184908110610bc357fe5b60009182526020909120600660079092020101546001600160a01b031614610c1c5760405162461bcd60e51b8152600401808060200182810382526030815260200180610ff16030913960400191505060405180910390fd5b6001600160a01b0387166000908152602081905260408120805488908110610c4057fe5b600091825260208083206007909202909101546001600160a01b038b168352908290526040822080549193509089908110610c7757fe5b600091825260208220600790910201919091556040516001600160a01b038b169083908381818185875af1925050503d8060008114610cd2576040519150601f19603f3d011682016040523d82523d6000602084013e610cd7565b606091505b5050905080610d24576040805162461bcd60e51b81526020600482015260146024820152732330b4b632b2103a379039b2b7321022ba3432b960611b604482015290519081900360640190fd5b50505050505050505050565b60008060008060008060008060008a8a80600080846001600160a01b03166001600160a01b031681526020019081526020016000208054905011610db0576040805162461bcd60e51b81526020600482015260126024820152711d985d5b1d08191bd95cdb9d08195e1a5cdd60721b604482015290519081900360640190fd5b610db8610f73565b6001600160a01b038e16600090815260208190526040902080548e908110610ddc57fe5b9060005260206000209060070201604051806101400160405290816000820154815260200160018201548152602001600282015481526020016003820160009054906101000a90046001600160a01b03166001600160a01b03166001600160a01b031681526020016003820160149054906101000a900460ff161515151581526020016004820160009054906101000a90046001600160a01b03166001600160a01b03166001600160a01b031681526020016004820160149054906101000a900460ff161515151581526020016005820160009054906101000a90046001600160a01b03166001600160a01b03166001600160a01b031681526020016005820160149054906101000a900460ff161515151581526020016006820160009054906101000a90046001600160a01b03166001600160a01b03166001600160a01b0316815250509050806000015181602001518260400151836060015184608001518560a001518660c001518760e001518861010001519b509b509b509b509b509b509b509b509b505050509295985092959850929598565b6040805161014081018252600080825260208201819052918101829052606081018290526080810182905260a0810182905260c0810182905260e0810182905261010081018290526101208101919091529056fe526571756972656420436f6e6669726d6174696f6e73206d7573742062652033206f722066657765724f6e6c79207468652062656e65666963696172792063616e2077697468647261772066726f6d20746865207661756c747661756c74206e6f7420656c696769626c6520666f7220776974686472617720796574a2646970667358221220890fe5d4dc061c6a3db6f40bcd0a0753c23e4fd55c5c69d230db24cb7ca4f97e64736f6c63430006070033",
  "linkReferences": {},
  "deployedLinkReferences": {}
}